{
  "abi": [
    {
      "inputs": [
        {
          "internalType": "contract ILiquidityPool",
          "name": "liquidityPool_",
          "type": "address"
        },
        {
          "internalType": "address",
          "name": "protocol_",
          "type": "address"
        },
        {
          "internalType": "address",
          "name": "chainlinkAggregator_",
          "type": "address"
        }
      ],
      "stateMutability": "nonpayable",
      "type": "constructor"
    },
    {
      "anonymous": false,
      "inputs": [
        {
          "indexed": true,
          "internalType": "address",
          "name": "aggregator",
          "type": "address"
        }
      ],
      "name": "ChainlinkAggregatorSet",
      "type": "event"
    },
    {
      "anonymous": false,
      "inputs": [
        {
          "indexed": true,
          "internalType": "address",
          "name": "liquidityPool",
          "type": "address"
        }
      ],
      "name": "LiquidityPoolSet",
      "type": "event"
    },
    {
      "anonymous": false,
      "inputs": [
        {
          "indexed": true,
          "internalType": "address",
          "name": "trader",
          "type": "address"
        },
        {
          "indexed": false,
          "internalType": "uint256",
          "name": "positionId",
          "type": "uint256"
        },
        {
          "indexed": false,
          "internalType": "uint256",
          "name": "closePrice",
          "type": "uint256"
        },
        {
          "indexed": false,
          "internalType": "uint256",
          "name": "closeDate",
          "type": "uint256"
        },
        {
          "indexed": false,
          "internalType": "int256",
          "name": "pnlShares",
          "type": "int256"
        },
        {
          "indexed": false,
          "internalType": "bool",
          "name": "isLong",
          "type": "bool"
        }
      ],
      "name": "PositionClosed",
      "type": "event"
    },
    {
      "anonymous": false,
      "inputs": [
        {
          "indexed": true,
          "internalType": "address",
          "name": "trader",
          "type": "address"
        },
        {
          "indexed": false,
          "internalType": "uint256",
          "name": "positionId",
          "type": "uint256"
        },
        {
          "indexed": false,
          "internalType": "uint256",
          "name": "collateral",
          "type": "uint256"
        },
        {
          "indexed": false,
          "internalType": "uint256",
          "name": "shares",
          "type": "uint256"
        },
        {
          "indexed": false,
          "internalType": "uint256",
          "name": "leverage",
          "type": "uint256"
        },
        {
          "indexed": false,
          "internalType": "bool",
          "name": "isLong",
          "type": "bool"
        },
        {
          "indexed": false,
          "internalType": "uint256",
          "name": "entryPrice",
          "type": "uint256"
        },
        {
          "indexed": false,
          "internalType": "uint256",
          "name": "liquidationPrice",
          "type": "uint256"
        },
        {
          "indexed": false,
          "internalType": "uint256",
          "name": "takeProfitPrice",
          "type": "uint256"
        },
        {
          "indexed": false,
          "internalType": "uint256",
          "name": "openDate",
          "type": "uint256"
        }
      ],
      "name": "PositionOpened",
      "type": "event"
    },
    {
      "anonymous": false,
      "inputs": [
        {
          "indexed": true,
          "internalType": "address",
          "name": "protocol",
          "type": "address"
        }
      ],
      "name": "ProtocolSet",
      "type": "event"
    },
    {
      "anonymous": false,
      "inputs": [
        {
          "indexed": false,
          "internalType": "address",
          "name": "protocol",
          "type": "address"
        },
        {
          "indexed": false,
          "internalType": "uint256",
          "name": "protocolShare",
          "type": "uint256"
        }
      ],
      "name": "ProtocolShareTaken",
      "type": "event"
    },
    {
      "inputs": [],
      "name": "chainlinkAggregator",
      "outputs": [
        {
          "internalType": "contract AggregatorV3Interface",
          "name": "",
          "type": "address"
        }
      ],
      "stateMutability": "view",
      "type": "function"
    },
    {
      "inputs": [
        {
          "internalType": "uint256",
          "name": "positionId",
          "type": "uint256"
        }
      ],
      "name": "closePosition",
      "outputs": [],
      "stateMutability": "nonpayable",
      "type": "function"
    },
    {
      "inputs": [
        {
          "internalType": "uint256[]",
          "name": "positionIds",
          "type": "uint256[]"
        }
      ],
      "name": "closePositions",
      "outputs": [],
      "stateMutability": "nonpayable",
      "type": "function"
    },
    {
      "inputs": [],
      "name": "liquidityPool",
      "outputs": [
        {
          "internalType": "contract ILiquidityPool",
          "name": "",
          "type": "address"
        }
      ],
      "stateMutability": "view",
      "type": "function"
    },
    {
      "inputs": [
        {
          "internalType": "uint256",
          "name": "collateral",
          "type": "uint256"
        },
        {
          "internalType": "uint256",
          "name": "leverage",
          "type": "uint256"
        },
        {
          "internalType": "bool",
          "name": "isLong",
          "type": "bool"
        }
      ],
      "name": "openPosition",
      "outputs": [],
      "stateMutability": "nonpayable",
      "type": "function"
    },
    {
      "inputs": [
        {
          "internalType": "uint256",
          "name": "",
          "type": "uint256"
        }
      ],
      "name": "positions",
      "outputs": [
        {
          "internalType": "address",
          "name": "trader",
          "type": "address"
        },
        {
          "internalType": "uint128",
          "name": "shares",
          "type": "uint128"
        },
        {
          "internalType": "uint32",
          "name": "leverage",
          "type": "uint32"
        },
        {
          "internalType": "bool",
          "name": "isLong",
          "type": "bool"
        },
        {
          "internalType": "uint256",
          "name": "entryPrice",
          "type": "uint256"
        }
      ],
      "stateMutability": "view",
      "type": "function"
    },
    {
      "inputs": [],
      "name": "protocol",
      "outputs": [
        {
          "internalType": "address",
          "name": "",
          "type": "address"
        }
      ],
      "stateMutability": "view",
      "type": "function"
    },
    {
      "inputs": [
        {
          "internalType": "address",
          "name": "aggregator",
          "type": "address"
        }
      ],
      "name": "setChainlinkAggregator",
      "outputs": [],
      "stateMutability": "nonpayable",
      "type": "function"
    },
    {
      "inputs": [
        {
          "internalType": "contract ILiquidityPool",
          "name": "_liquidityPool",
          "type": "address"
        }
      ],
      "name": "setLiquidityPool",
      "outputs": [],
      "stateMutability": "nonpayable",
      "type": "function"
    },
    {
      "inputs": [
        {
          "internalType": "address",
          "name": "_protocol",
          "type": "address"
        }
      ],
      "name": "setProtocol",
      "outputs": [],
      "stateMutability": "nonpayable",
      "type": "function"
    }
  ],
  "bytecode": {
    "object": "0x6080604052606462000016620f424060016200015d565b62000022919062000189565b6000553480156200003257600080fd5b50604051620011c9380380620011c98339810160408190526200005591620001c5565b62000060836200007f565b6200006b82620000c9565b620000768162000113565b50505062000219565b600280546001600160a01b0319166001600160a01b0383169081179091556040517fe57f71636571365571c0eaeaeb54e1d9e0065804f056a57a2a29448524f7d18a90600090a250565b600380546001600160a01b0319166001600160a01b0383169081179091556040517f9269d63ac6e0360a152db45a73e3e9e471a002419dff28abc7b58efaa211a2ba90600090a250565b600580546001600160a01b0319166001600160a01b0383169081179091556040517fe961dda575ed805d146eaa4042ec32dc5f24ac9c6ea5bcee7647d4ae801f6fe790600090a250565b80820281158282048414176200018357634e487b7160e01b600052601160045260246000fd5b92915050565b600082620001a757634e487b7160e01b600052601260045260246000fd5b500490565b6001600160a01b0381168114620001c257600080fd5b50565b600080600060608486031215620001db57600080fd5b8351620001e881620001ac565b6020850151909350620001fb81620001ac565b60408501519092506200020e81620001ac565b809150509250925092565b610fa080620002296000396000f3fe608060405234801561001057600080fd5b506004361061009e5760003560e01c80638ce74426116100665780638ce744261461012157806399fbab8814610134578063a126d601146101d5578063aa93186d146101e8578063ef353917146101fb57600080fd5b806301877020146100a35780630a9d793d146100b85780631558c966146100cb5780635004d36c146100de578063665a11ca1461010e575b600080fd5b6100b66100b1366004610c3e565b61020e565b005b6100b66100c6366004610c3e565b610258565b6100b66100d9366004610c70565b6102a2565b6005546100f1906001600160a01b031681565b6040516001600160a01b0390911681526020015b60405180910390f35b6002546100f1906001600160a01b031681565b6003546100f1906001600160a01b031681565b610190610142366004610ca9565b6004602052600090815260409020805460018201546002909201546001600160a01b03909116916001600160801b03811691600160801b820463ffffffff1691600160a01b900460ff169085565b604080516001600160a01b0390961686526001600160801b03909416602086015263ffffffff909216928401929092529015156060830152608082015260a001610105565b6100b66101e3366004610ca9565b610598565b6100b66101f6366004610cd8565b610612565b6100b6610209366004610c3e565b610653565b600280546001600160a01b0319166001600160a01b0383169081179091556040517fe57f71636571365571c0eaeaeb54e1d9e0065804f056a57a2a29448524f7d18a90600090a250565b600380546001600160a01b0319166001600160a01b0383169081179091556040517f9269d63ac6e0360a152db45a73e3e9e471a002419dff28abc7b58efaa211a2ba90600090a250565b6102b0620f42406005610dac565b82101580156102cc57506102c8620f42406064610dac565b8211155b6103305760405162461bcd60e51b815260206004820152602a60248201527f5472616465506169723a3a6f70656e506f736974696f6e3a20496e76616c6964604482015269103632bb32b930b3b29760b11b60648201526084015b60405180910390fd5b629896808310158015610348575064e8d4a510008311155b6103a95760405162461bcd60e51b815260206004820152602c60248201527f5472616465506169723a3a6f70656e506f736974696f6e3a20496e76616c696460448201526b1031b7b63630ba32b930b61760a11b6064820152608401610327565b60006103b361069d565b90506000806103c3838686610798565b60025460405163297576c360e21b8152336004820152602481018a905292945090925042916000916001600160a01b03169063a5d5db0c906044016020604051808303816000875af115801561041d573d6000803e3d6000fd5b505050506040513d601f19601f820116820180604052508101906104419190610dc9565b60018054919250600061045383610de2565b90915550506040805160a081018252338082526001600160801b03808516602080850191825263ffffffff808e168688019081528d151560608801908152608088018e81526001805460009081526004909652948a9020985189546001600160a01b03919091166001600160a01b0319918216178a5595518986018054945193511515600160a01b0260ff60a01b1994909616600160801b029490971697169690961791909117161790915590516002909301929092559054915190917f664218bb5e99fd4ca867d8e92f8fdbeddc8aac8132245e8efecdae2576e3789e9161058691908c9086908d908d908d908d908d908d90988952602089019790975260408801959095526060870193909352901515608086015260a085015260c084015260e08301526101008201526101200190565b60405180910390a25050505050505050565b60006105a38261083f565b90508061060e5760405162461bcd60e51b815260206004820152603360248201527f5472616465506169723a3a636c6f7365506f736974696f6e3a20506f7369746960448201527237b71034b9903737ba1031b637b9b0b136329760691b6064820152608401610327565b5050565b60005b815181101561060e5761064082828151811061063357610633610dfb565b602002602001015161083f565b508061064b81610de2565b915050610615565b600580546001600160a01b0319166001600160a01b0383169081179091556040517fe961dda575ed805d146eaa4042ec32dc5f24ac9c6ea5bcee7647d4ae801f6fe790600090a250565b600080600560009054906101000a90046001600160a01b03166001600160a01b031663feaf968c6040518163ffffffff1660e01b815260040160a060405180830381865afa1580156106f3573d6000803e3d6000fd5b505050506040513d601f19601f820116820180604052508101906107179190610e2b565b505050915050600081136107935760405162461bcd60e51b815260206004820152603f60248201527f5472616465506169723a3a5f67657443757272656e7450726963653a2046616960448201527f6c656420746f206665746368207468652063757272656e742070726963652e006064820152608401610327565b919050565b60008082156107ee57836107af620f424087610dac565b6107b99190610e7b565b6107c39086610e9d565b9150836107d3620f424087610dac565b6107dd9190610e7b565b6107e79086610eb0565b9050610837565b836107fc620f424087610dac565b6108069190610e7b565b6108109086610eb0565b915083610820620f424087610dac565b61082a9190610e7b565b6108349086610e9d565b90505b935093915050565b600081815260046020526040812080546001600160a01b03166108655750600092915050565b600061086f61069d565b60028301546001840154919250600091829182916108a59190600160801b810463ffffffff1690600160a01b900460ff16610798565b60018701549193509150600160a01b900460ff161561090c578084106108da5760018501546001600160801b03169250610949565b8184116108ff5760018501546108f8906001600160801b0316610ec3565b9250610949565b5060009695505050505050565b8084116109285760018501546001600160801b03169250610949565b8184106108ff576001850154610946906001600160801b0316610ec3565b92505b600083600f0b13156109f5576002805486546001600160a01b039182169263a9059cbb929091169061098090600f88900b90610ef2565b6040516001600160e01b031960e085901b1681526001600160a01b03909216600483015260248201526044016020604051808303816000875af11580156109cb573d6000803e3d6000fd5b505050506040513d601f19601f820116820180604052508101906109ef9190610f22565b50610b77565b600080546001870154620f424091610a15916001600160801b0316610dac565b610a1f9190610e7b565b60025460035460405163a9059cbb60e01b81526001600160a01b03918216600482015260248101849052929350169063a9059cbb906044016020604051808303816000875af1158015610a76573d6000803e3d6000fd5b505050506040513d601f19601f82011682018060405250810190610a9a9190610f22565b506002805460018801546001600160a01b03909116916342966c68918491610acb916001600160801b031690610f3f565b6001600160801b0316610ade9190610e9d565b6040518263ffffffff1660e01b8152600401610afc91815260200190565b600060405180830381600087803b158015610b1657600080fd5b505af1158015610b2a573d6000803e3d6000fd5b5050600354604080516001600160a01b039092168252602082018590527f110f5f0187a3a1acba865eca199d48ecae4bfe8aaac55910fa3c0684a0abbd9a935001905060405180910390a1505b84546001860154604080518a8152602081018890524281830152600f87900b6060820152600160a01b90920460ff1615156080830152516001600160a01b03909216917f7f0e648fab91ce864339c747d7bcf7e42c0b796ff39ea0c668e810495f1278cc9160a0908290030190a2505050600093845250506004602052506040812080546001600160a01b0319168155600180820180546001600160a81b031916905560029091019190915590565b6001600160a01b0381168114610c3b57600080fd5b50565b600060208284031215610c5057600080fd5b8135610c5b81610c26565b9392505050565b8015158114610c3b57600080fd5b600080600060608486031215610c8557600080fd5b83359250602084013591506040840135610c9e81610c62565b809150509250925092565b600060208284031215610cbb57600080fd5b5035919050565b634e487b7160e01b600052604160045260246000fd5b60006020808385031215610ceb57600080fd5b823567ffffffffffffffff80821115610d0357600080fd5b818501915085601f830112610d1757600080fd5b813581811115610d2957610d29610cc2565b8060051b604051601f19603f83011681018181108582111715610d4e57610d4e610cc2565b604052918252848201925083810185019188831115610d6c57600080fd5b938501935b82851015610d8a57843584529385019392850192610d71565b98975050505050505050565b634e487b7160e01b600052601160045260246000fd5b8082028115828204841417610dc357610dc3610d96565b92915050565b600060208284031215610ddb57600080fd5b5051919050565b600060018201610df457610df4610d96565b5060010190565b634e487b7160e01b600052603260045260246000fd5b805169ffffffffffffffffffff8116811461079357600080fd5b600080600080600060a08688031215610e4357600080fd5b610e4c86610e11565b9450602086015193506040860151925060608601519150610e6f60808701610e11565b90509295509295909350565b600082610e9857634e487b7160e01b600052601260045260246000fd5b500490565b81810381811115610dc357610dc3610d96565b80820180821115610dc357610dc3610d96565b600081600f0b6f7fffffffffffffffffffffffffffffff198103610ee957610ee9610d96565b60000392915050565b80820260008212600160ff1b84141615610f0e57610f0e610d96565b8181058314821517610dc357610dc3610d96565b600060208284031215610f3457600080fd5b8151610c5b81610c62565b6001600160801b03818116838216028082169190828114610f6257610f62610d96565b50509291505056fea264697066735822122054ff3e68eed8cab2e31a759cad0fc3a8c9c3ba2165a578e2b061d66367df01dd64736f6c63430008130033",
    "linkReferences": {}
  },
  "methodIdentifiers": {
    "chainlinkAggregator()": "5004d36c",
    "closePosition(uint256)": "a126d601",
    "closePositions(uint256[])": "aa93186d",
    "liquidityPool()": "665a11ca",
    "openPosition(uint256,uint256,bool)": "1558c966",
    "positions(uint256)": "99fbab88",
    "protocol()": "8ce74426",
    "setChainlinkAggregator(address)": "ef353917",
    "setLiquidityPool(address)": "01877020",
    "setProtocol(address)": "0a9d793d"
  },
  "id": 40
}